{
  "contractName": "Vote",
  "abi": [
    {
      "constant": true,
      "inputs": [],
      "name": "FFN",
      "outputs": [
        {
          "name": "",
          "type": "address"
        }
      ],
      "payable": false,
      "stateMutability": "view",
      "type": "function"
    },
    {
      "anonymous": false,
      "inputs": [
        {
          "indexed": true,
          "name": "newsurl",
          "type": "string"
        },
        {
          "indexed": true,
          "name": "username",
          "type": "string"
        },
        {
          "indexed": true,
          "name": "vote",
          "type": "string"
        },
        {
          "indexed": false,
          "name": "time",
          "type": "string"
        }
      ],
      "name": "voteEvent",
      "type": "event"
    },
    {
      "constant": false,
      "inputs": [
        {
          "name": "newsurl",
          "type": "string"
        },
        {
          "name": "username",
          "type": "string"
        },
        {
          "name": "vote",
          "type": "string"
        },
        {
          "name": "time",
          "type": "string"
        },
        {
          "name": "pk",
          "type": "string"
        }
      ],
      "name": "voteInfo",
      "outputs": [],
      "payable": false,
      "stateMutability": "nonpayable",
      "type": "function"
    },
    {
      "constant": true,
      "inputs": [
        {
          "name": "newsurl",
          "type": "string"
        }
      ],
      "name": "getVoteInfo",
      "outputs": [
        {
          "name": "username",
          "type": "string"
        },
        {
          "name": "vote",
          "type": "string"
        },
        {
          "name": "time",
          "type": "string"
        }
      ],
      "payable": false,
      "stateMutability": "view",
      "type": "function"
    }
  ],
  "bytecode": "0x608060405234801561001057600080fd5b50610cdd806100206000396000f3fe608060405260043610610057576000357c0100000000000000000000000000000000000000000000000000000000900463ffffffff1680630dd212ac1461005c578063c4bc3c9a14610275578063dd64750c14610599575b600080fd5b34801561006857600080fd5b506101226004803603602081101561007f57600080fd5b810190808035906020019064010000000081111561009c57600080fd5b8201836020820111156100ae57600080fd5b803590602001918460018302840111640100000000831117156100d057600080fd5b91908080601f016020809104026020016040519081016040528093929190818152602001838380828437600081840152601f19601f8201169050808301925050505050505091929192905050506105f0565b60405180806020018060200180602001848103845287818151815260200191508051906020019080838360005b8381101561016a57808201518184015260208101905061014f565b50505050905090810190601f1680156101975780820380516001836020036101000a031916815260200191505b50848103835286818151815260200191508051906020019080838360005b838110156101d05780820151818401526020810190506101b5565b50505050905090810190601f1680156101fd5780820380516001836020036101000a031916815260200191505b50848103825285818151815260200191508051906020019080838360005b8381101561023657808201518184015260208101905061021b565b50505050905090810190601f1680156102635780820380516001836020036101000a031916815260200191505b50965050505050505060405180910390f35b34801561028157600080fd5b50610597600480360360a081101561029857600080fd5b81019080803590602001906401000000008111156102b557600080fd5b8201836020820111156102c757600080fd5b803590602001918460018302840111640100000000831117156102e957600080fd5b91908080601f016020809104026020016040519081016040528093929190818152602001838380828437600081840152601f19601f8201169050808301925050505050505091929192908035906020019064010000000081111561034c57600080fd5b82018360208201111561035e57600080fd5b8035906020019184600183028401116401000000008311171561038057600080fd5b91908080601f016020809104026020016040519081016040528093929190818152602001838380828437600081840152601f19601f820116905080830192505050505050509192919290803590602001906401000000008111156103e357600080fd5b8201836020820111156103f557600080fd5b8035906020019184600183028401116401000000008311171561041757600080fd5b91908080601f016020809104026020016040519081016040528093929190818152602001838380828437600081840152601f19601f8201169050808301925050505050505091929192908035906020019064010000000081111561047a57600080fd5b82018360208201111561048c57600080fd5b803590602001918460018302840111640100000000831117156104ae57600080fd5b91908080601f016020809104026020016040519081016040528093929190818152602001838380828437600081840152601f19601f8201169050808301925050505050505091929192908035906020019064010000000081111561051157600080fd5b82018360208201111561052357600080fd5b8035906020019184600183028401116401000000008311171561054557600080fd5b91908080601f016020809104026020016040519081016040528093929190818152602001838380828437600081840152601f19601f820116905080830192505050505050509192919290505050610917565b005b3480156105a557600080fd5b506105ae610be7565b604051808273ffffffffffffffffffffffffffffffffffffffff1673ffffffffffffffffffffffffffffffffffffffff16815260200191505060405180910390f35b60608060606001846040518082805190602001908083835b60208310151561062d5780518252602082019150602081019050602083039250610608565b6001836020036101000a03801982511681845116808217855250505050505090500191505090815260200160405180910390206001018054600181600116156101000203166002900480601f0160208091040260200160405190810160405280929190818152602001828054600181600116156101000203166002900480156106f75780601f106106cc576101008083540402835291602001916106f7565b820191906000526020600020905b8154815290600101906020018083116106da57829003601f168201915b505050505092506001846040518082805190602001908083835b6020831015156107365780518252602082019150602081019050602083039250610711565b6001836020036101000a03801982511681845116808217855250505050505090500191505090815260200160405180910390206002018054600181600116156101000203166002900480601f0160208091040260200160405190810160405280929190818152602001828054600181600116156101000203166002900480156108005780601f106107d557610100808354040283529160200191610800565b820191906000526020600020905b8154815290600101906020018083116107e357829003601f168201915b505050505091506001846040518082805190602001908083835b60208310151561083f578051825260208201915060208101905060208303925061081a565b6001836020036101000a03801982511681845116808217855250505050505090500191505090815260200160405180910390206003018054600181600116156101000203166002900480601f0160208091040260200160405190810160405280929190818152602001828054600181600116156101000203166002900480156109095780601f106108de57610100808354040283529160200191610909565b820191906000526020600020905b8154815290600101906020018083116108ec57829003601f168201915b505050505090509193909250565b608060405190810160405280868152602001858152602001848152602001838152506001826040518082805190602001908083835b602083101515610971578051825260208201915060208101905060208303925061094c565b6001836020036101000a038019825116818451168082178552505050505050905001915050908152602001604051809103902060008201518160000190805190602001906109c0929190610c0c565b5060208201518160010190805190602001906109dd929190610c0c565b5060408201518160020190805190602001906109fa929190610c0c565b506060820151816003019080519060200190610a17929190610c0c565b50905050826040518082805190602001908083835b602083101515610a515780518252602082019150602081019050602083039250610a2c565b6001836020036101000a0380198251168184511680821785525050505050509050019150506040518091039020846040518082805190602001908083835b602083101515610ab45780518252602082019150602081019050602083039250610a8f565b6001836020036101000a0380198251168184511680821785525050505050509050019150506040518091039020866040518082805190602001908083835b602083101515610b175780518252602082019150602081019050602083039250610af2565b6001836020036101000a03801982511681845116808217855250505050505090500191505060405180910390207ff8fbff17a3a1838ec331bdff1979f53f6ba48fe39fad1888bbe1aa04695f40f0856040518080602001828103825283818151815260200191508051906020019080838360005b83811015610ba6578082015181840152602081019050610b8b565b50505050905090810190601f168015610bd35780820380516001836020036101000a031916815260200191505b509250505060405180910390a45050505050565b6000809054906101000a900473ffffffffffffffffffffffffffffffffffffffff1681565b828054600181600116156101000203166002900490600052602060002090601f016020900481019282601f10610c4d57805160ff1916838001178555610c7b565b82800160010185558215610c7b579182015b82811115610c7a578251825591602001919060010190610c5f565b5b509050610c889190610c8c565b5090565b610cae91905b80821115610caa576000816000905550600101610c92565b5090565b9056fea165627a7a7230582034a2eff1880a2dac94183d710bd665aa03ad671ee20f74290e1a893a71eda0590029",
  "source": "\npragma solidity ^0.5;\ncontract Vote {\n    \n    struct VoteInfo {\n        string newsurl;\n        string username;\n        string vote;\n        string time;\n    }\n    \n    address public FFN;\n\t\n    mapping(string => VoteInfo) Votes;\n    \n    //發送已投票的事件\n    event voteEvent(string indexed newsurl, string indexed username, string indexed vote, string time);\n    \n   \t//投票\n    function voteInfo(string memory newsurl, string memory username, string memory vote, string memory time, string memory pk) public {\n\n        Votes[pk] = VoteInfo({\n            newsurl: newsurl,    \n            username: username,\n            vote\t: vote,\n            time: time\n        });\n        \n        //發射事件\n        emit voteEvent(newsurl, username, vote, time);\n        \n    }\n    \n    function getVoteInfo(string memory newsurl) public view returns (string memory username, string memory vote ,string memory time) {\n        username = Votes[newsurl].username;\n        vote = Votes[newsurl].vote;\n        time = Votes[newsurl].time;\n     }     \n}\n    ",
  "sourcePath": "C:/Users/ChiChan/Desktop/ffn_depoly_contract/contracts/vote.sol",
  "compiler": {
    "name": "solc",
    "version": "0.5.0+commit.1d4f565a.Emscripten.clang"
  },
  "schemaVersion": "3.0.9",
  "updatedAt": "2019-11-04T17:12:05.442Z",
  "devdoc": {
    "methods": {}
  },
  "userdoc": {
    "methods": {}
  }
}