{
  "contractName": "Vote",
  "abi": [
    {
      "constant": true,
      "inputs": [],
      "name": "FFN",
      "outputs": [
        {
          "name": "",
          "type": "address"
        }
      ],
      "payable": false,
      "stateMutability": "view",
      "type": "function"
    },
    {
      "anonymous": false,
      "inputs": [
        {
          "indexed": false,
          "name": "newsurl",
          "type": "string"
        },
        {
          "indexed": false,
          "name": "username",
          "type": "string"
        },
        {
          "indexed": false,
          "name": "vote",
          "type": "string"
        },
        {
          "indexed": false,
          "name": "time",
          "type": "string"
        }
      ],
      "name": "voteEvent",
      "type": "event"
    },
    {
      "constant": false,
      "inputs": [
        {
          "name": "newsurl",
          "type": "string"
        },
        {
          "name": "username",
          "type": "string"
        },
        {
          "name": "vote",
          "type": "string"
        },
        {
          "name": "time",
          "type": "string"
        }
      ],
      "name": "voteInfo",
      "outputs": [],
      "payable": false,
      "stateMutability": "nonpayable",
      "type": "function"
    },
    {
      "constant": true,
      "inputs": [
        {
          "name": "newsurl",
          "type": "string"
        }
      ],
      "name": "getVoteInfo",
      "outputs": [
        {
          "name": "username",
          "type": "string"
        },
        {
          "name": "vote",
          "type": "string"
        },
        {
          "name": "time",
          "type": "string"
        }
      ],
      "payable": false,
      "stateMutability": "view",
      "type": "function"
    }
  ],
  "bytecode": "0x608060405234801561001057600080fd5b50610c1d806100206000396000f3fe608060405234801561001057600080fd5b50600436106100415760003560e01c80630dd212ac1461004657806386bb45ca14610252578063dd64750c146104d2575b600080fd5b6100ff6004803603602081101561005c57600080fd5b810190808035906020019064010000000081111561007957600080fd5b82018360208201111561008b57600080fd5b803590602001918460018302840111640100000000831117156100ad57600080fd5b91908080601f016020809104026020016040519081016040528093929190818152602001838380828437600081840152601f19601f82011690508083019250505050505050919291929050505061051c565b60405180806020018060200180602001848103845287818151815260200191508051906020019080838360005b8381101561014757808201518184015260208101905061012c565b50505050905090810190601f1680156101745780820380516001836020036101000a031916815260200191505b50848103835286818151815260200191508051906020019080838360005b838110156101ad578082015181840152602081019050610192565b50505050905090810190601f1680156101da5780820380516001836020036101000a031916815260200191505b50848103825285818151815260200191508051906020019080838360005b838110156102135780820151818401526020810190506101f8565b50505050905090810190601f1680156102405780820380516001836020036101000a031916815260200191505b50965050505050505060405180910390f35b6104d06004803603608081101561026857600080fd5b810190808035906020019064010000000081111561028557600080fd5b82018360208201111561029757600080fd5b803590602001918460018302840111640100000000831117156102b957600080fd5b91908080601f016020809104026020016040519081016040528093929190818152602001838380828437600081840152601f19601f8201169050808301925050505050505091929192908035906020019064010000000081111561031c57600080fd5b82018360208201111561032e57600080fd5b8035906020019184600183028401116401000000008311171561035057600080fd5b91908080601f016020809104026020016040519081016040528093929190818152602001838380828437600081840152601f19601f820116905080830192505050505050509192919290803590602001906401000000008111156103b357600080fd5b8201836020820111156103c557600080fd5b803590602001918460018302840111640100000000831117156103e757600080fd5b91908080601f016020809104026020016040519081016040528093929190818152602001838380828437600081840152601f19601f8201169050808301925050505050505091929192908035906020019064010000000081111561044a57600080fd5b82018360208201111561045c57600080fd5b8035906020019184600183028401116401000000008311171561047e57600080fd5b91908080601f016020809104026020016040519081016040528093929190818152602001838380828437600081840152601f19601f82011690508083019250505050505050919291929050505061083d565b005b6104da610b27565b604051808273ffffffffffffffffffffffffffffffffffffffff1673ffffffffffffffffffffffffffffffffffffffff16815260200191505060405180910390f35b60608060606001846040518082805190602001908083835b602083106105575780518252602082019150602081019050602083039250610534565b6001836020036101000a03801982511681845116808217855250505050505090500191505090815260200160405180910390206001018054600181600116156101000203166002900480601f0160208091040260200160405190810160405280929190818152602001828054600181600116156101000203166002900480156106215780601f106105f657610100808354040283529160200191610621565b820191906000526020600020905b81548152906001019060200180831161060457829003601f168201915b505050505092506001846040518082805190602001908083835b6020831061065e578051825260208201915060208101905060208303925061063b565b6001836020036101000a03801982511681845116808217855250505050505090500191505090815260200160405180910390206002018054600181600116156101000203166002900480601f0160208091040260200160405190810160405280929190818152602001828054600181600116156101000203166002900480156107285780601f106106fd57610100808354040283529160200191610728565b820191906000526020600020905b81548152906001019060200180831161070b57829003601f168201915b505050505091506001846040518082805190602001908083835b602083106107655780518252602082019150602081019050602083039250610742565b6001836020036101000a03801982511681845116808217855250505050505090500191505090815260200160405180910390206003018054600181600116156101000203166002900480601f01602080910402602001604051908101604052809291908181526020018280546001816001161561010002031660029004801561082f5780601f106108045761010080835404028352916020019161082f565b820191906000526020600020905b81548152906001019060200180831161081257829003601f168201915b505050505090509193909250565b6040518060800160405280858152602001848152602001838152602001828152506001856040518082805190602001908083835b602083106108945780518252602082019150602081019050602083039250610871565b6001836020036101000a038019825116818451168082178552505050505050905001915050908152602001604051809103902060008201518160000190805190602001906108e3929190610b4c565b506020820151816001019080519060200190610900929190610b4c565b50604082015181600201908051906020019061091d929190610b4c565b50606082015181600301908051906020019061093a929190610b4c565b509050507ff8fbff17a3a1838ec331bdff1979f53f6ba48fe39fad1888bbe1aa04695f40f0848484846040518080602001806020018060200180602001858103855289818151815260200191508051906020019080838360005b838110156109af578082015181840152602081019050610994565b50505050905090810190601f1680156109dc5780820380516001836020036101000a031916815260200191505b50858103845288818151815260200191508051906020019080838360005b83811015610a155780820151818401526020810190506109fa565b50505050905090810190601f168015610a425780820380516001836020036101000a031916815260200191505b50858103835287818151815260200191508051906020019080838360005b83811015610a7b578082015181840152602081019050610a60565b50505050905090810190601f168015610aa85780820380516001836020036101000a031916815260200191505b50858103825286818151815260200191508051906020019080838360005b83811015610ae1578082015181840152602081019050610ac6565b50505050905090810190601f168015610b0e5780820380516001836020036101000a031916815260200191505b509850505050505050505060405180910390a150505050565b6000809054906101000a900473ffffffffffffffffffffffffffffffffffffffff1681565b828054600181600116156101000203166002900490600052602060002090601f016020900481019282601f10610b8d57805160ff1916838001178555610bbb565b82800160010185558215610bbb579182015b82811115610bba578251825591602001919060010190610b9f565b5b509050610bc89190610bcc565b5090565b610bee91905b80821115610bea576000816000905550600101610bd2565b5090565b9056fea165627a7a72305820587583bf827a5ccaa42976436c34655521570d0fa56be00105254b48e5570de50029",
  "source": "\r\npragma solidity ^0.5;\r\ncontract Vote {\r\n    \r\n    struct VoteInfo {\r\n        string newsurl;\r\n        string username;\r\n        string vote;\r\n        string time;\r\n    }\r\n    \r\n    address public FFN;\r\n\t\r\n    mapping(string => VoteInfo) Votes;\r\n    \r\n    //發送已投票的事件\r\n    event voteEvent(string newsurl, string username, string vote, string time);\r\n    \r\n   \t//投票\r\n    function voteInfo(string memory newsurl, string memory username, string memory vote, string memory time) public {\r\n\r\n        Votes[newsurl] = VoteInfo({\r\n            newsurl: newsurl,    \r\n            username: username,\r\n            vote\t: vote,\r\n            time: time\r\n        });\r\n        \r\n        //發射事件\r\n        emit voteEvent(newsurl, username, vote, time);\r\n        \r\n    }\r\n    \r\n    function getVoteInfo(string memory newsurl) public view returns (string memory username, string memory vote ,string memory time) {\r\n        username = Votes[newsurl].username;\r\n        vote = Votes[newsurl].vote;\r\n        time = Votes[newsurl].time;\r\n     }     \r\n}\r\n    ",
  "sourcePath": "C:/Users/user/Desktop/ffn_depoly_contract/contracts/vote.sol",
  "compiler": {
    "name": "solc",
    "version": "0.5.8+commit.23d335f2.Emscripten.clang"
  },
  "schemaVersion": "3.0.16",
  "updatedAt": "2019-09-16T06:29:17.208Z",
  "devdoc": {
    "methods": {}
  },
  "userdoc": {
    "methods": {}
  }
}